:100000000A128A11EB2FFF1B0D2883137F18831709
:100010000008840A0319FF0A080000308A00040857
:10002000840A82070034013400340A340034643412
:100030000034E834033410342734563461346C34DB
:100040006F347234203441344434433431343A34DC
:1000500020342534753420342C3420345634613423
:100060006C346F3472342034413444344334323489
:100070003A342034253475340D340A3400342534B0
:1000800075342E34253475342534753420342034B9
:10009000253475342E3425347534253475342034A4
:1000A0002034203420342534753420342034003476
:1000B000533431343A34203420342034203453340F
:1000C00032343A34203463346F346E3474343A3416
:1000D0000034F000831603139F017008831203138A
:1000E0009F00080078087904031977287828A72842
:1000F000FD01FD0A862801300310F80DF90DFF3EC1
:10010000031D7C280130FC007C08FD07F91F8928AD
:100110008A287B2879087B02031D902878087A02B8
:10012000031C932894289A287808FA027908031C5B
:10013000FB03FB0201300310F90CF80CFF3E031D1A
:100140009B280130FD02031DA628A7288A287B08CA
:10015000F9007A08F80008000A128A1593270A1293
:100160008A1140300A128A1169200A128A11443019
:100170000A128A1169200A128A11003083120313AD
:10018000A3000030A2002530A1008030A0000A1298
:100190008A11F3210A128A110A128A113E220A12C6
:1001A0008A110A128A1504270A128A110A128A1160
:1001B00082260A128A110A128A1113240A128A113B
:1001C0000A128A118F220A128A11D6280A128A115B
:1001D0000028F000701CED28EE28F228831203138B
:1001E0000614F528831203130610F01CF828F928CA
:1001F000FB288614FC288610701DFF280029022980
:10020000061503290611F01D062907290929861557
:100210000A298611701E0D290E291029061611298A
:100220000612F01E14291529172986161829861278
:10023000701F1B291C291E2906171F290613F01FD2
:100240002229232925298617262986130800F80143
:10025000F9014C2978087307F6007408F5000318B3
:10026000F50AF81F3429F5037508F700770883129B
:100270000313FF00760884000A128A1103200A1271
:100280008A110A128A152D270A128A110130F807DD
:100290000318F90A0030F90778087307F6007408A4
:1002A000F5000318F50AF81F5629F5037508F7003D
:1002B000770883120313FF00760884000A128A115C
:1002C00003200A128A11003A031D672968292A2986
:1002D0000800F501F60170087104031970297129ED
:1002E000A829F701F70A7F2901300310F00DF10D5D
:1002F000FF3E031D75290130F4007408F707F11F54
:1003000082298329742901300310F50DF60DFF3E73
:10031000031D842971087302031D9029700872025D
:10032000031C932994299B297008F2027108031C6D
:10033000F303F302751401300310F10CF00CFF3ECF
:10034000031D9C290130F702031DA729A829832931
:100350007608F1007508F00008000030FC0000305D
:10036000FB000030FA000030F900701CB829B929F0
:10037000D0297408F907750803110318013E031901
:10038000C229FA07760803110318013E0319C92987
:10039000FB07770803110318013E0319D029FC0756
:1003A0000130F8000310F40DF50DF60DF70DF80B04
:1003B000D22901300310F30CF20CF10CF00CFF3ECB
:1003C000031DDA297308720471047004031DE929FE
:1003D000EA29B5297C08F3007B08F2007A08F100CD
:1003E0007908F000080083160313071387172430D9
:1003F0009800903083120313980083160317870127
:100400008715831203132008A4002108A5002208E1
:10041000A6002308A70002300310A40DA50DA60D09
:10042000A70DFF3E031D0C2A2708F3002608F20043
:100430002508F1002408F0000030F7003D30F600F8
:100440000930F5000030F4000A128A1144230A1220
:100450008A117008FF3E83120313A8007108031865
:10046000013EFF3EA900280883160313990083125A
:1004700003132908831603139A00080000300A1298
:100480008A11E9200A128A111A30F500F830F400B6
:10049000F40B482AF50B482A000030300A128A155E
:1004A00059270A128A110730F5007D30F400F40B49
:1004B000572AF50B572A30300A128A1559270A1283
:1004C0008A114230F400F40B632A000030300A1223
:1004D0008A1559270A128A1138300A128A155927A3
:1004E0000A128A1108300A128A1559270A128A112B
:1004F00001300A128A1559270A128A1106300A1287
:100500008A1559270A128A110C300A128A1559279E
:100510000A128A112130F400F40B8C2A08000B30E7
:1005200083120313A0006008B900BA013908A100C2
:100530003A08A2005F08BB00BC013B08A3003C08CE
:10054000A400A0300A128A11C1250A128A11A03013
:100550000A128A1542270A128A11C3308312031322
:10056000BA00CC30B900B90BB32ABA0BB32A0000D9
:100570000A128A1511270A128A117108803AFF009F
:1005800080307F02031DC62A01307002031CC92A75
:10059000CA2AE42A0A128A151E270A128A1183120D
:1005A0000313D6002B305606031DD72AD82ADB2A80
:1005B0006108013EE1002D305606031DE02AE12AC4
:1005C000E42A6108FF3EE1008312031361088900F9
:1005D0000800FD0183120313A71FEF2AF02AF72A50
:1005E000A609A709A60A0319A70AFD01FD0AA51F66
:1005F000FA2AFB2A002BA409A509A40A0319A50AB3
:10060000240825040319052B062B352BFC01FC0AB5
:10061000142B01300310A40DA50DFF3E031D0A2B62
:100620000130FB007B08FC07A51F172B182B092B9B
:1006300025082702031D1E2B24082602031C212B3C
:10064000222B282B2408A6022508031CA703A70297
:1006500001300310A50CA40CFF3E031D292B013013
:10066000FC02031D342B352B182B7D080319392B65
:100670003A2B3F2BA609A709A60A0319A70A2708A0
:10068000A5002608A40008000030FC000030FB0094
:100690000030FA000030F90073087204710470042D
:1006A0000319532B542BA12BFD01FD0A642B0130A0
:1006B000F8000310F00DF10DF20DF30DF80B592BAE
:1006C0000130F8007808FD07F31F672B682B572BC4
:1006D0000130F8000310F90DFA0DFB0DFC0DF80BBD
:1006E0006A2B73087702031D7F2B72087602031DA5
:1006F0007F2B71087502031D7F2B70087402031C89
:10070000822B832B922B7008F4027108031C710F4B
:10071000F5027208031C720FF6027308031C730FB4
:10072000F702791401300310F30CF20CF10CF00C09
:10073000FF3E031D932B0130FD02031DA02BA12BB7
:10074000682B7C08F3007B08F2007A08F100790836
:10075000F000080083120313A101F71FB02BB12B87
:10076000B82BF609F709F60A0319F70AA101A10A3D
:10077000F91FBB2BBC2BC52BF809F909F80A031983
:10078000F90A0130FA007A08A106A201A30176084D
:1007900077040319CC2BCD2B042CA001A00ADB2B52
:1007A00001300310F60DF70DFF3E031DD12B013074
:1007B000FA007A08A007F71FDE2BDF2BD02B0130C1
:1007C0000310A20DA30DFF3E031DE02B7708790255
:1007D000031DEC2B76087802031CEF2BF02BF72B74
:1007E0007608F8027708031CF903F9022214013095
:1007F0000310F70CF60CFF3E031DF82B0130A0028E
:10080000031D032C042CDF2B21080319082C092CB1
:100810000E2CA209A309A20A0319A30A2308F700B0
:100820002208F6000800F401F40A01300A128A15C1
:1008300073270A128A114630F3008030F4000A123E
:100840008A1127210A128A11F401F40A02300A12CD
:100850008A1573270A128A112D3083120313A00000
:100860005C08B900BA013908A1003A08A2005B0887
:10087000BB00BC013B08A3003C08A4005A08BD0013
:10088000BE013D08A5003E08A6005908BF00C001F2
:100890003F08A7004008A8005808C100C20141084D
:1008A000A9004208AA005708C300C4014308AB00CE
:1008B0004408AC006108C500C6014508AD00460803
:1008C000AE00BE300A128A11C1250A128A11BE304A
:1008D000F3000030F4000A128A1127210A128A114B
:1008E000C33083120313BA00CC30B900B90B762C95
:1008F000BA0B762C0000080083120313A901A31F72
:10090000822C832C902CA009A109A209A309A00A7A
:100910000319A10A0319A20A0319A30AA901A90A22
:10092000A71F932C942CA32CA409A509A609A709F9
:10093000A40A0319A50A0319A60A0319A70A013074
:10094000FD007D08A9060030AD000030AC0000308D
:10095000AB000030AA00230822042104200403195C
:10096000B22CB32C002DA801A80AC32C0130FD0025
:100970000310A00DA10DA20DA30DFD0BB82C01308D
:10098000FD007D08A807A31FC62CC72CB62C01307C
:10099000FD000310AA0DAB0DAC0DAD0DFD0BC92C68
:1009A00023082702031DDE2C22082602031DDE2C4D
:1009B00021082502031DDE2C20082402031CE12C43
:1009C000E22CF12C2008A4022108031C210FA5020F
:1009D0002208031C220FA6022308031C230FA702D0
:1009E0002A1401300310A30CA20CA10CA00CFF3E92
:1009F000031DF22C0130A802031DFF2C002DC72C73
:100A000029080319042D052D102DAA09AB09AC09DD
:100A1000AD09AA0A0319AB0A0319AC0A0319AD0AF6
:100A20002D08A3002C08A2002B08A1002A08A00072
:100A30000800831203133608C2003708C3003808C1
:100A4000C4003908C5003208C2023308031C330F42
:100A50002A2D2B2DC3023408031C340F302D312DC9
:100A6000C4023508031C350F362D372DC502450845
:100A7000A3004408A2004308A1004208A0002E08D9
:100A8000C6002F08C7003008C8003108C900320866
:100A9000C6023308031C330F4E2D4F2DC7023408F6
:100AA000031C340F542D552DC8023508031C350F77
:100AB0005A2D5B2DC9024908F3004808F200470887
:100AC000F1004608F0003E08CA003F08CB0040088D
:100AD000CC004108CD003A08CA023B08031C3B0F7A
:100AE000722D732DCB023C08031C3C0F782D792D01
:100AF000CC023D08031C3D0F7E2D7F2DCD024D08FD
:100B0000F7004C08F6004B08F5004A08F4000A12FA
:100B10008A11AD210A128A11730883120313A700E8
:100B20007208A6007108A5007008A4000A128A11B4
:100B30007C240A128A118312031320083A07CE007C
:100B40000030031801302107D0010318D00A3B07F9
:100B5000CF000318D00A22085007D1010318D10A88
:100B60003C07D0000318D10A230851073D07D100E4
:100B70005108B1005008B0004F08AF004E08AE0059
:100B8000080083120313B7002130B3006D2E253007
:100B900038060319CC2DCD2DD72D37088400380801
:100BA000831380000130AF002F08B7076D2EB2010C
:100BB000DE2DC030AF002F08B204F82D0130A007A1
:100BC000FF30200784000A128A110D200A128A11B0
:100BD000B800AF00B0013008003A0319F02D6D2EB7
:100BE0002F08003A03197D2E753A0319D92D6D2E61
:100BF0003308840083130008B400840A0008B50099
:100C00000230AF002F08B307B801B80A3808AF00A8
:100C10002F07013E84000A128A110D200A128A1140
:100C2000B0000A128A110D200A128A11B10031088F
:100C30003502031D1D2E300834020318202E212EEC
:100C4000222E2C2E0130AF002F08B80705303806B1
:100C5000031D2B2E2C2E062E3808B600642E0A30CB
:100C6000F8000030F9003608AF002F07013E84007D
:100C70000A128A110D200A128A11F0000A128A1132
:100C80000D200A128A11F1003508F3003408F20031
:100C90000A128A1169210A128A117108FB00700870
:100CA000FA000A128A1172200A128A117808303E5C
:100CB00083120313B80037088400380883138000B8
:100CC0000130AF002F08B707FF30AF002F08B6077D
:100CD000360A031D6C2E6D2E2F2E0130A007FF301B
:100CE000200784000A128A110D200A128A11B80006
:100CF0003808031D7C2E7D2EC72D370884008313F2
:100D00008001080000300A128A15D9270A128A11B8
:100D1000700883120313E00001300A128A15D927E4
:100D20000A128A11700883120313DF006008D200D0
:100D3000D301D401D5015508B1005408B0005308BF
:100D4000AF005208AE000030B5000030B4000030F3
:100D5000B3000030B2000030B9000030B8000030FD
:100D6000B700FF30B6000030BD000030BC000030DE
:100D7000BB000030BA000030C1000030C0000030BD
:100D8000BF006430BE000A128A1119250A128A11A6
:100D9000831203132E08DE005F08D200D301D401B2
:100DA000D5015508B1005408B0005308AF005208EF
:100DB000AE000030B5000030B4000030B3000030A9
:100DC000B2000030B9000030B8000030B700FF308A
:100DD000B6000030BD000030BC000030BB00003069
:100DE000BA000030C1000030C0000030BF006430E5
:100DF000BE000A128A1119250A128A1183120313DE
:100E00002E08DD006430F6000030F7005E08D200E6
:100E1000D3015208F0005308F1000530F200003011
:100E2000F3000A128A15B4270A128A117108F90010
:100E30007008F8000A128A11AA230A128A11760889
:100E400083120313DC000A30A4000030A5000A302E
:100E5000F6000030F7005E08D200D3015208F0001F
:100E60005308F1000530F2000030F3000A128A1531
:100E7000B4270A128A117108F9007008F8000A12E2
:100E80008A11AA230A128A11770883120313A70072
:100E90007608A6000A128A11E9220A128A11831220
:100EA00003132408DB000A30A4000030A5005E080C
:100EB000D200D3015208F0005308F1000530F200CF
:100EC0000030F3000A128A15B4270A128A11710839
:100ED00083120313A7007008A6000A128A11E922E0
:100EE0000A128A11831203132408DA006430F60010
:100EF0000030F7005D08D200D3015208F00053081B
:100F0000F1000530F2000030F3000A128A15B42710
:100F10000A128A117108F9007008F8000A128A1181
:100F2000AA230A128A11760883120313D9000A3001
:100F3000A4000030A5000A30F6000030F7005D087C
:100F4000D200D3015208F0005308F1000530F2003E
:100F50000030F3000A128A15B4270A128A117108A8
:100F6000F9007008F8000A128A11AA230A128A11DD
:100F7000770883120313A7007608A6000A128A11C5
:100F8000E9220A128A11831203132408D8000A30B6
:100F9000A4000030A5005D08D200D3015208F00083
:100FA0005308F1000530F2000030F3000A128A15F0
:100FB000B4270A128A11710883120313A70070085C
:100FC000A6000A128A11E9220A128A118312031357
:100FD0002408D700080083135630840062300A12B8
:100FE0008A15F0260A128A11A0308400DC300A1219
:100FF0008A15F0260A128A1183010A128A11AC2876
:101DE00064008001840A0406031900340406F12EFD
:101DF000F00083160313981CFE2EFF2EF92E700898
:101E0000831203139900080000300A128A1559271B
:101E10000A128A1501300A128A1559270A128A15E0
:101E20000800831203130C0EF200720C0139F30048
:101E3000F4017308F0007408F10008008312031322
:101E40008C1E232F242F1E2F981C272F282F2A2F3C
:101E5000181218168C121A080800F20083120313C5
:101E6000081772080A128A11E9200A128A158312C9
:101E7000031388170D30F100F10B3C2F831203136D
:101E800088130800F200502F7208840000080A121C
:101E90008A15F8260A128A150130F1007108F20736
:101EA0007208840083130008031D572F582F442FF6
:101EB0000800F30083120313081373080A128A112F
:101EC000E9200A128A158312031388170630F200DC
:101ED0003030F100F10B6A2FF20B6A2F00008312F1
:101EE000031388130800F5007503031D782F792F5D
:101EF000832F74087F3EF60076080A128A15592748
:101F00000A128A15922F02307506031D882F892F19
:101F1000922F7408BF3EF60076080A128A155927D8
:101F20000A128A15080083160317890108148814F9
:101F3000831203138501831603138601831203138F
:101F40008601831603138801831203138801831605
:101F500003138701831203138701831603130F17DB
:101F60008F160F120F140800F401F501701CB92F21
:101F7000BA2FC02F7208F4070318F50A7308F50783
:101F800001300310F20DF30DFF3E031DC12F013090
:101F90000310F10CF00CFF3E031DC82F70087104F4
:101FA000031DD32FD42FB62F7508F1007408F0004D
:101FB0000800F4000E307402031CDF2FE02FE32F23
:101FC000F001F101FF2F4030831203139F007408CA
:101FD000F20001300310F20DFF3E031DEA2F031043
:101FE000720D9F001F149F149F18F72FF82FF42FC6
:101FF0001E08F200F3017208F0007308F1000800F7
:08400000FF3FFF3FFF3FFF3FC0
:04400E00D420FF3F7C
:00000001FF
